:100000000C942A000C94F8110C9447000C944700AF
:100010000C9447000C9447000C9447000C94470044
:100020000C9447000C9447000C94A9100C944700C2
:100030000C9447000C9447000C9447000C94470024
:100040000C9447000C9447000C9447000C94470014
:100050000C94470011241FBECFE5D8E0DEBFCDBF12
:1000600010E0A8E6B0E001C01D92AD36B107E1F79F
:1000700010E0A0E6B0E0E2E3F2E302C005900D92EA
:10008000A836B107D9F70E94D7180C9417190C9409
:100090000000EF92FF920F931F937B018C0120E0F1
:1000A00030E040E05FE40E94490388238CF0C801FF
:1000B000B70120E030E040E05FE40E94C1010E940F
:1000C000A9039B01AC01205030404040504806C07D
:1000D000C801B7010E94A9039B01AC01B901CA0183
:1000E0001F910F91FF90EF900895A0E0B0E0EBE733
:1000F000F0E00C94E018DC012B01FA019C919230A5
:1001000008F439C1EB018881823008F433C194309E
:1001100069F4843009F02FC111969C91119789815F
:10012000981709F428C1A0E6B0E025C1843009F48D
:1001300021C18230A9F4923009F01DC19A01AD01AC
:1001400088E0EA010990AE01E90109929E0181501F
:10015000C1F7E201898111969C918923818308C1AD
:10016000923009F407C112962D903C901397EB0141
:100170008A819B811496AD90BD90CD90DC901797AD
:10018000EC80FD800E811F819101281B390BB90184
:1001900037FF04C066277727621B730B6032710537
:1001A0000CF061C0121613066CF537014801062EDB
:1001B00004C096948794779467940A94D2F721E0C8
:1001C00030E040E050E004C0220F331F441F551FB1
:1001D0006A95D2F721503040404050402E213F21B7
:1001E00040235123211531054105510521F021E01E
:1001F00030E040E050E079018A01E628F72808293C
:1002000019293CC0232BD1F1260E371E350146019A
:10021000062E04C096948794779467940A94D2F734
:1002200021E030E040E050E004C0220F331F441FC3
:10023000551F6A95D2F721503040404050402A2146
:100240003B214C215D21211531054105510521F04E
:1002500021E030E040E050E059016A01A628B728CB
:10026000C828D9280BC0821593052CF01C01AA249C
:10027000BB24650103C0EE24FF24870111969C91E5
:10028000D20111968C91981709F445C0992339F041
:10029000A80197012A193B094C095D0906C0A6016E
:1002A00095012E193F09400B510B57FD08C01182D3
:1002B0003382228224833583468357831DC081E0A5
:1002C00081833382228288279927DC01821B930B4A
:1002D000A40BB50B84839583A683B7830DC0220F2F
:1002E000331F441F551F24833583468357838281E0
:1002F000938101979383828324813581468157813D
:10030000DA01C9010197A109B1098F5F9F4FAF4F72
:10031000BF4328F30BC0918333822282EA0CFB1C7B
:100320000C1D1D1DE482F5820683178383E0808304
:10033000248135814681578157FF1AC0C901AA27F8
:1003400097FDA095BA2F81709070A070B0705695EF
:10035000479537952795822B932BA42BB52B848318
:100360009583A683B7838281938101969383828349
:10037000DF0101C0D201CD01CDB7DEB7E2E10C94BF
:10038000FC18A0E2B0E0E7ECF1E00C94EC18698313
:100390007A838B839C832D833E834F835887E9E048
:1003A000EE2EF12CEC0EFD1ECE010196B7010E943F
:1003B000D2048E010F5E1F4FCE010596B8010E9438
:1003C000D2048A8991E089278A8BC701B801AE01DE
:1003D000475E5F4F0E9475000E94FD03A096E6E015
:1003E0000C940819A0E2B0E0E8EFF1E00C94EC18EE
:1003F00069837A838B839C832D833E834F835887C5
:10040000F9E0EF2EF12CEC0EFD1ECE010196B701A6
:100410000E94D2048E010F5E1F4FCE010596B801D7
:100420000E94D204C701B801AE01475E5F4F0E942F
:1004300075000E94FD03A096E6E00C940819A0E266
:10044000B0E0E5E2F2E00C94E01869837A838B83F4
:100450009C832D833E834F835887CE010196BE0136
:10046000675F7F4F0E94D204CE010596BE016F5E8A
:100470007F4F0E94D2049985923088F0898982301A
:10048000C8F0943019F4823051F404C0843029F457
:10049000923081F480E690E0C6C0923049F420E0CA
:1004A0009A858A89981321E02A87CE010996BBC0D4
:1004B000823049F420E09A858A89981321E02A8BBA
:1004C000CE014196B0C02D843E844F8458886D88FB
:1004D0007E888F88988CEE24FF248701AA24BB2471
:1004E000650140E050E060E070E0E0E0F0E0C10174
:1004F00081709070892BE9F0E60CF71C081D191D1E
:100500009A01AB012A0D3B1D4C1D5D1D80E090E062
:10051000A0E0B0E0E614F7040805190520F481E036
:1005200090E0A0E0B0E0BA01A901480F591F6A1F8E
:100530007B1FAA0CBB1CCC1CDD1C97FE08C081E0F5
:1005400090E0A0E0B0E0A82AB92ACA2ADB2A3196B6
:10055000E032F10549F0660C771C881C991C569412
:10056000479437942794C3CFFA85EA892B893C892D
:100570008B859C85280F391F2E5F3F4F17C0CA01FE
:1005800081709070892B61F016950795F794E79428
:1005900080E090E0A0E0B0E8E82AF92A0A2B1B2BC3
:1005A00076956795579547952F5F3F4F77FDE7CF36
:1005B0000CC0440F551F661F771F17FD4160EE0CDE
:1005C000FF1C001F111F21503040403090E05907A0
:1005D00090E0690790E4790760F32B8F3C8FDB0193
:1005E000CA018F779070A070B07080349105A1051A
:1005F000B10561F447FD0AC0E114F10401051105DC
:1006000029F0405C5F4F6F4F7F4F40781A8EFE1786
:1006100011F081E08A8F4D8F5E8F6F8F78A383E01A
:10062000898FCE0149960E94FD03A096E2E10C94C9
:10063000FC18A8E1B0E0EFE1F3E00C94EC1869835A
:100640007A838B839C832D833E834F83588789E0F5
:10065000E82EF12CEC0EFD1ECE010196B7010E9492
:10066000D2048E010F5E1F4FCE010596B8010E9485
:10067000D2048985823040F08989823028F0C70110
:10068000B8010E944A0501C08FEF6896E6E00C941D
:100690000819A8E1B0E0EFE4F3E00C94EC186983EA
:1006A0007A838B839C832D833E834F83588789E095
:1006B000E82EF12CEC0EFD1ECE010196B7010E9432
:1006C000D2048E010F5E1F4FCE010596B8010E9425
:1006D000D2048985823040F08989823028F0C701B0
:1006E000B8010E944A0501C08FEF6896E6E00C94BD
:1006F0000819A8E1B0E0EFE7F3E00C94EC18698387
:100700007A838B839C832D833E834F83588789E034
:10071000E82EF12CEC0EFD1ECE010196B7010E94D1
:10072000D2048E010F5E1F4FCE010596B8010E94C4
:10073000D2048985823040F08989823028F0C7014F
:10074000B8010E944A0501C081E06896E6E00C9479
:100750000819ACE0B0E0EFEAF3E00C94F01869831C
:100760007A838B839C83CE010196BE016B5F7F4FA2
:100770000E94D2048D81823061F1823050F1843048
:1007800021F48E81882351F12EC02F81388537FDC9
:1007900020C06E812F3131051CF06623F9F023C093
:1007A0008EE190E0821B930B29853A854B855C8511
:1007B00004C056954795379527958A95D2F76623B5
:1007C000B1F050954095309521953F4F4F4F5F4F79
:1007D0000EC020E030E040E050E009C02FEF3FEFD6
:1007E0004FEF5FE704C020E030E040E050E8B9019F
:1007F000CA012C96E2E00C940C19DF92EF92FF9262
:100800000F931F93FC01E480F58006811781D1804E
:100810008081823048F480E090E0A0E1B0E0E82AF6
:10082000F92A0A2B1B2BA5C0843009F49FC0823003
:1008300021F4EE24FF24870105C0E114F104010531
:10084000110519F4E0E0F0E096C0628173819FEF3A
:10085000623879070CF05BC022E83FEF261B370BAC
:100860002A3131052CF020E030E040E050E02AC091
:10087000B801A701022E04C0769567955795479554
:100880000A94D2F781E090E0A0E0B0E004C0880FC5
:10089000991FAA1FBB1F2A95D2F70197A109B10979
:1008A0008E219F21A023B1230097A105B10521F03E
:1008B00081E090E0A0E0B0E09A01AB01282B392B59
:1008C0004A2B5B2BDA01C9018F779070A070B07052
:1008D00080349105A105B10539F427FF09C0205CDA
:1008E0003F4F4F4F5F4F04C0215C3F4F4F4F5F4F13
:1008F000E0E0F0E02030A0E03A07A0E04A07A0E402
:100900005A0710F0E1E0F0E079018A0127C0603871
:10091000710564F5FB01E158FF4FD801C7018F77DE
:100920009070A070B07080349105A105B10539F4C4
:10093000E7FE0DC080E490E0A0E0B0E004C08FE3EB
:1009400090E0A0E0B0E0E80EF91E0A1F1B1F17FFA1
:1009500005C016950795F794E794319687E01695AC
:100960000795F794E7948A95D1F705C0EE24FF2404
:100970008701EFEFF0E06E2F679566276795902F60
:100980009F77D794DD24D7948E2F8695492F462BB9
:10099000582F5D29B701CA011F910F91FF90EF9069
:1009A000DF900895FC01DB01408151812281622F9B
:1009B0006F7770E0221F2227221F9381892F880FD3
:1009C000822B282F30E0991F9927991F11969C930D
:1009D000119721153105A9F54115510561057105DD
:1009E00011F482E037C082E89FEF13969C938E93B8
:1009F00012979A01AB0167E0220F331F441F551F66
:100A00006A95D1F783E08C930DC0220F331F441FEA
:100A1000551F12968D919C911397019713969C9355
:100A20008E931297203080E0380780E0480780E4FA
:100A3000580758F314962D933D934D935C93179755
:100A400008952F3F310579F4411551056105710570
:100A500019F484E08C93089564FF03C081E08C93C3
:100A600012C01C9210C02F57304013963C932E9307
:100A7000129783E08C9387E0440F551F661F771F02
:100A80008A95D1F7706414964D935D936D937C9322
:100A9000179708951F93DC01FB019C91923008F495
:100AA00047C08081823008F443C0943051F41196DD
:100AB0001C91843099F58181682F70E0611B710968
:100AC0003FC0843021F0923031F48230B9F181811D
:100AD000882389F12DC011961C9111978230F1F075
:100AE00081811817D9F412962D913C911397828128
:100AF00093818217930794F028173907BCF0149656
:100B00008D919D910D90BC91A02D248135814681C0
:100B10005781281739074A075B0718F4112341F05A
:100B20000AC082179307A407B50740F4112319F0F0
:100B300061E070E005C06FEF7FEF02C060E070E041
:100B4000CB011F9108950F931F93DF93CF93CDB7E0
:100B5000DEB7C954D0400FB6F894DEBF0FBECDBF8C
:100B6000FE01E75BFF4F808383E064E041E00E9489
:100B7000E613FE01E85BFF4F89E08083FE01E75B3F
:100B8000FF4F808160E040E00E94E613FE01E85BD9
:100B9000FF4F8083FE01E85BFF4F8081882309F4CB
:100BA00090C083E064E041E00E947012FE01ED5BC2
:100BB000FF4F80E090E0AAE7B4E480839183A283B2
:100BC000B3838E01015C1F4FFE01ED5BFF4F60811F
:100BD00071818281938120E030E04AEF54E40E94E9
:100BE0001F02DC01CB01F80180839183A283B383D0
:100BF000FE01FF96608171818281938120E030E067
:100C000040E85FE30E94790388232CF481E090E0C0
:100C10009EAF8DAF46C0FE01FF96608171818281DB
:100C2000938120E03FEF4FE757E40E941903181625
:100C300064F5FE01ED5BFF4F6081718182819381DC
:100C400020E030E040E251E40E941F02DC01CB01D1
:100C5000BC01CD010E944900DC01CB019EAF8DAFEC
:100C60000FC088EC90E09CAF8BAF8BAD9CAD019733
:100C7000F1F79CAF8BAF8DAD9EAD01979EAF8DAF61
:100C80008DAD9EAD009769F716C0FE01FF9660819D
:100C90007181828193810E944900DC01CB019EAF6A
:100CA0008DAF8DAD9EAD9AAF89AF89AD9AAD0197ED
:100CB000F1F79AAF89AF83E064E040E00E947012E0
:100CC00029C2FE01E95BFF4F10828EC1FE01E75B86
:100CD000FF4FDE01A95BBF4F80816C9141E00E9414
:100CE000E613FE01E85BFF4F808380E090E0AAE717
:100CF000B4E48DAB9EABAFABB8AF6DA97EA98FA9A5
:100D000098AD20E030E04AEF54E40E941F02DC017D
:100D1000CB0189AB9AABABABBCAB69A97AA98BA968
:100D20009CA920E030E040E85FE30E94790388233B
:100D30002CF481E090E098AB8FA73FC069A97AA915
:100D40008BA99CA920E03FEF4FE757E40E941903CD
:100D500018164CF56DA97EA98FA998AD20E030E05A
:100D600040E251E40E941F02DC01CB01BC01CD0135
:100D70000E944900DC01CB0198AB8FA70FC088EC23
:100D800090E09EA78DA78DA59EA50197F1F79EA740
:100D90008DA78FA598A9019798AB8FA78FA598A924
:100DA000009769F714C069A97AA98BA99CA90E9428
:100DB0004900DC01CB0198AB8FA78FA598A99CA710
:100DC0008BA78BA59CA50197F1F79CA78BA7FE018C
:100DD000E75BFF4FDE01A95BBF4F80816C9140E074
:100DE0000E94E613FE01E85BFF4F808380E090E005
:100DF000AAE7B4E48FA398A7A9A7BAA76FA178A57B
:100E000089A59AA520E030E04AEF54E40E941F0231
:100E1000DC01CB018BA39CA3ADA3BEA36BA17CA1E2
:100E20008DA19EA120E030E040E85FE30E947903BD
:100E300088232CF481E090E09AA389A33FC06BA1A2
:100E40007CA18DA19EA120E03FEF4FE757E40E94D7
:100E5000190318164CF56FA178A589A59AA520E06D
:100E600030E040E251E40E941F02DC01CB01BC01F2
:100E7000CD010E944900DC01CB019AA389A30FC0D8
:100E800088EC90E098A38F8F8F8D98A10197F1F750
:100E900098A38F8F89A19AA101979AA389A389A169
:100EA0009AA1009769F714C06BA17CA18DA19EA1A6
:100EB0000E944900DC01CB019AA389A389A19AA1D0
:100EC0009E8F8D8F8D8D9E8D0197F1F79E8F8D8FCB
:100ED000FE01E85BFF4F8081882309F47CC083E03A
:100EE00064E041E00E94701280E090E0AAE7B4E480
:100EF000898F9A8FAB8FBC8F698D7A8D8B8D9C8DEE
:100F000020E030E04AEF54E40E941F02DC01CB01F4
:100F10008D8B9E8BAF8BB88F6D897E898F89988DD5
:100F200020E030E040E85FE30E94790388232CF45E
:100F300081E090E09C8B8B8B3FC06D897E898F898F
:100F4000988D20E03FEF4FE757E40E9419031816F1
:100F50004CF5698D7A8D8B8D9C8D20E030E040E2E0
:100F600051E40E941F02DC01CB01BC01CD010E94B3
:100F70004900DC01CB019C8B8B8B0FC088EC90E08F
:100F80009A8B898B89899A890197F1F79A8B898B3A
:100F90008B899C8901979C8B8B8B8B899C89009773
:100FA00069F714C06D897E898F89988D0E944900E8
:100FB000DC01CB019C8B8B8B8B899C89988B8F87D9
:100FC0008F8598890197F1F7988B8F8783E064E08C
:100FD00040E00E947012DE01A95BBF4FFE01E95B99
:100FE000FF4F80818F5F8C93FE01E95BFF4F808113
:100FF000893008F46BCEFE01E75BFF4F808164E02F
:1010000042E00E94E613FE01E85BFF4F8083FE0191
:10101000E85BFF4F8081882309F47CC083E064E0B3
:1010200041E00E94701280E090E0AAE7B4E48B8770
:101030009C87AD87BE876B857C858D859E8520E0EE
:1010400030E04AEF54E40E941F02DC01CB018F83A1
:101050009887A987BA876F81788589859A8520E0E6
:1010600030E040E85FE30E94790388232CF481E0BC
:1010700090E09E838D833FC06F81788589859A85B6
:1010800020E03FEF4FE757E40E94190318164CF594
:101090006B857C858D859E8520E030E040E251E4C3
:1010A0000E941F02DC01CB01BC01CD010E9449005E
:1010B000DC01CB019E838D830FC088EC90E09C8384
:1010C0008B838B819C810197F1F79C838B838D812E
:1010D0009E8101979E838D838D819E81009769F704
:1010E00014C06F81788589859A850E944900DC014A
:1010F000CB019E838D838D819E819A838983898193
:101100009A810197F1F79A83898383E064E040E054
:101110000E947012C75BDF4F0FB6F894DEBF0FBEA0
:10112000CDBFCF91DF911F910F9108950F931F9322
:10113000DF93CF93CDB7DEB7C954D0400FB6F89444
:10114000DEBF0FBECDBFFE01E75BFF4F808383E0B4
:1011500064E041E00E94E613FE01E85BFF4F89E096
:101160008083FE01E75BFF4F808160E040E00E94EA
:101170007012FE01E85BFF4F8083FE01E85BFF4FCA
:101180008081882309F490C083E064E041E00E94FC
:101190007012FE01ED5BFF4F80E090E0AAE7B4E43F
:1011A00080839183A283B3838E01015C1F4FFE0174
:1011B000ED5BFF4F608171818281938120E030E09F
:1011C0004AEF54E40E941F02DC01CB01F801808346
:1011D0009183A283B383FE01FF9660817181828136
:1011E000938120E030E040E85FE30E9479038823A8
:1011F0002CF481E090E09EAF8DAF46C0FE01FF96DB
:10120000608171818281938120E03FEF4FE757E455
:101210000E941903181664F5FE01ED5BFF4F608113
:1012200071818281938120E030E040E251E40E94AC
:101230001F02DC01CB01BC01CD010E944900DC0191
:10124000CB019EAF8DAF0FC088EC90E09CAF8BAF11
:101250008BAD9CAD0197F1F79CAF8BAF8DAD9EAD83
:1012600001979EAF8DAF8DAD9EAD009769F716C00B
:10127000FE01FF9660817181828193810E94490005
:10128000DC01CB019EAF8DAF8DAD9EAD9AAF89AF26
:1012900089AD9AAD0197F1F79AAF89AF83E064E029
:1012A00040E00E94701229C2FE01E95BFF4F1082EC
:1012B0008EC1FE01E75BFF4FDE01A95BBF4F80815E
:1012C0006C9141E00E947012FE01E85BFF4F808349
:1012D00080E090E0AAE7B4E48DAB9EABAFABB8AFD3
:1012E0006DA97EA98FA998AD20E030E04AEF54E4C3
:1012F0000E941F02DC01CB0189AB9AABABABBCAB4C
:1013000069A97AA98BA99CA920E030E040E85FE3B5
:101310000E94790388232CF481E090E098AB8FA79A
:101320003FC069A97AA98BA99CA920E03FEF4FE7AC
:1013300057E40E94190318164CF56DA97EA98FA9D0
:1013400098AD20E030E040E251E40E941F02DC0151
:10135000CB01BC01CD010E944900DC01CB0198AB5F
:101360008FA70FC088EC90E09EA78DA78DA59EA5A6
:101370000197F1F79EA78DA78FA598A9019798AB24
:101380008FA78FA598A9009769F714C069A97AA9B2
:101390008BA99CA90E944900DC01CB0198AB8FA7C7
:1013A0008FA598A99CA78BA78BA59CA50197F1F762
:1013B0009CA78BA7FE01E75BFF4FDE01A95BBF4F38
:1013C00080816C9140E00E947012FE01E85BFF4F4B
:1013D000808380E090E0AAE7B4E48FA398A7A9A750
:1013E000BAA76FA178A589A59AA520E030E04AEFB9
:1013F00054E40E941F02DC01CB018BA39CA3ADA38C
:10140000BEA36BA17CA18DA19EA120E030E040E8AD
:101410005FE30E94790388232CF481E090E09AA393
:1014200089A33FC06BA17CA18DA19EA120E03FEFCD
:101430004FE757E40E94190318164CF56FA178A5E1
:1014400089A59AA520E030E040E251E40E941F0205
:10145000DC01CB01BC01CD010E944900DC01CB01C4
:101460009AA389A30FC088EC90E098A38F8F8F8DEB
:1014700098A10197F1F798A38F8F89A19AA101975D
:101480009AA389A389A19AA1009769F714C06BA1B7
:101490007CA18DA19EA10E944900DC01CB019AA3F1
:1014A00089A389A19AA19E8F8D8F8D8D9E8D019785
:1014B000F1F79E8F8D8FFE01E85BFF4F80818823BF
:1014C00009F47CC083E064E041E00E94701280E097
:1014D00090E0AAE7B4E4898F9A8FAB8FBC8F698DB7
:1014E0007A8D8B8D9C8D20E030E04AEF54E40E9491
:1014F0001F02DC01CB018D8B9E8BAF8BB88F6D896A
:101500007E898F89988D20E030E040E85FE30E947B
:10151000790388232CF481E090E09C8B8B8B3FC077
:101520006D897E898F89988D20E03FEF4FE757E4E2
:101530000E94190318164CF5698D7A8D8B8D9C8D40
:1015400020E030E040E251E40E941F02DC01CB01C8
:10155000BC01CD010E944900DC01CB019C8B8B8B2F
:101560000FC088EC90E09A8B898B89899A890197C2
:10157000F1F79A8B898B8B899C8901979C8B8B8B3C
:101580008B899C89009769F714C06D897E898F8942
:10159000988D0E944900DC01CB019C8B8B8B8B8941
:1015A0009C89988B8F878F8598890197F1F7988B05
:1015B0008F8783E064E040E00E947012DE01A95B47
:1015C000BF4FFE01E95BFF4F80818F5F8C93FE016F
:1015D000E95BFF4F8081893008F46BCEFE01E75B49
:1015E000FF4F808164E042E00E947012FE01E85BE0
:1015F000FF4F8083FE01E85BFF4F8081882309F461
:101600007CC083E064E041E00E94701280E090E0E2
:10161000AAE7B4E48B879C87AD87BE876B857C8502
:101620008D859E8520E030E04AEF54E40E941F0241
:10163000DC01CB018F839887A987BA876F81788572
:1016400089859A8520E030E040E85FE30E947903D5
:1016500088232CF481E090E09E838D833FC06F81CE
:10166000788589859A8520E03FEF4FE757E40E940F
:10167000190318164CF56B857C858D859E8520E0B9
:1016800030E040E251E40E941F02DC01CB01BC01CA
:10169000CD010E944900DC01CB019E838D830FC0E8
:1016A00088EC90E09C838B838B819C810197F1F780
:1016B0009C838B838D819E8101979E838D838D81F9
:1016C0009E81009769F714C06F81788589859A8516
:1016D0000E944900DC01CB019E838D838D819E8118
:1016E0009A83898389819A810197F1F79A83898303
:1016F00083E064E040E00E947012C75BDF4F0FB6EA
:10170000F894DEBF0FBECDBFCF91DF911F910F9137
:101710000895DF93CF93CDB7DEB7EB970FB6F8946C
:10172000DEBF0FBECDBF8BAF83E064E041E00E941F
:10173000E61389E08AAF8BAD60E00E94A6158AAF00
:101740008AAD882309F47DC083E064E041E00E9413
:10175000701280E090E0AAE7B4E48DAB9EABAFAB33
:10176000B8AF6DA97EA98FA998AD20E030E04AEF0F
:1017700054E40E941F02DC01CB0189AB9AABABABF6
:10178000BCAB69A97AA98BA99CA920E030E040E80C
:101790005FE30E94790388232CF481E090E098AB0A
:1017A0008FA73FC069A97AA98BA99CA920E03FEF28
:1017B0004FE757E40E94190318164CF56DA97EA94E
:1017C0008FA998AD20E030E040E251E40E941F0272
:1017D000DC01CB01BC01CD010E944900DC01CB0141
:1017E00098AB8FA70FC088EC90E09EA78DA78DA522
:1017F0009EA50197F1F79EA78DA78FA598A90197A0
:1018000098AB8FA78FA598A9009769F714C069A90D
:101810007AA98BA99CA90E944900DC01CB0198AB55
:101820008FA78FA598A99CA78BA78BA59CA501978F
:10183000F1F79CA78BA783E064E040E00E94701260
:1018400077C119AE71C18BAD69AD0E94A6158AAF83
:1018500080E090E0AAE7B4E48FA398A7A9A7BAA76D
:101860006FA178A589A59AA520E030E04AEF54E45D
:101870000E941F02DC01CB018BA39CA3ADA3BEA3DE
:101880006BA17CA18DA19EA120E030E040E85FE348
:101890000E94790388232CF481E090E09AA389A325
:1018A0003FC06BA17CA18DA19EA120E03FEF4FE73F
:1018B00057E40E94190318164CF56FA178A589A565
:1018C0009AA520E030E040E251E40E941F02DC01D2
:1018D000CB01BC01CD010E944900DC01CB019AA3E0
:1018E00089A30FC088EC90E098A38F8F8F8D98A16B
:1018F0000197F1F798A38F8F89A19AA101979AA3D5
:1019000089A389A19AA1009769F714C06BA17CA152
:101910008DA19EA10E944900DC01CB019AA389A35D
:1019200089A19AA19E8F8D8F8D8D9E8D0197F1F744
:101930009E8F8D8F8BAD69AD0E94A6158AAF80E01A
:1019400090E0AAE7B4E4898F9A8FAB8FBC8F698D42
:101950007A8D8B8D9C8D20E030E04AEF54E40E941C
:101960001F02DC01CB018D8B9E8BAF8BB88F6D89F5
:101970007E898F89988D20E030E040E85FE30E9407
:10198000790388232CF481E090E09C8B8B8B3FC003
:101990006D897E898F89988D20E03FEF4FE757E46E
:1019A0000E94190318164CF5698D7A8D8B8D9C8DCC
:1019B00020E030E040E251E40E941F02DC01CB0154
:1019C000BC01CD010E944900DC01CB019C8B8B8BBB
:1019D0000FC088EC90E09A8B898B89899A8901974E
:1019E000F1F79A8B898B8B899C8901979C8B8B8BC8
:1019F0008B899C89009769F714C06D897E898F89CE
:101A0000988D0E944900DC01CB019C8B8B8B8B89CC
:101A10009C89988B8F878F8598890197F1F7988B90
:101A20008F878AAD882309F47CC083E064E041E0BD
:101A30000E94701280E090E0AAE7B4E48B879C8754
:101A4000AD87BE876B857C858D859E8520E030E0E7
:101A50004AEF54E40E941F02DC01CB018F83988778
:101A6000A987BA876F81788589859A8520E030E0DB
:101A700040E85FE30E94790388232CF481E090E042
:101A80009E838D833FC06F81788589859A8520E00C
:101A90003FEF4FE757E40E94190318164CF56B858A
:101AA0007C858D859E8520E030E040E251E40E94F7
:101AB0001F02DC01CB01BC01CD010E944900DC0109
:101AC000CB019E838D830FC088EC90E09C838B8339
:101AD0008B819C810197F1F79C838B838D819E8103
:101AE00001979E838D838D819E81009769F714C035
:101AF0006F81788589859A850E944900DC01CB0138
:101B00009E838D838D819E819A83898389819A8129
:101B10000197F1F79A83898383E064E040E00E94B3
:101B2000701289AD8F5F89AF89AD893008F48BCE93
:101B3000EB960FB6F894DEBF0FBECDBFCF91DF910D
:101B40000895DF93CF93CDB7DEB7EB970FB6F89438
:101B5000DEBF0FBECDBF8BAF83E064E041E00E94EB
:101B6000E6130E9407118BAD63E00E9435118AAF26
:101B70008AAD882309F47DC083E064E041E00E94DF
:101B8000701280E090E0AAE7B4E48DAB9EABAFABFF
:101B9000B8AF6DA97EA98FA998AD20E030E04AEFDB
:101BA00054E40E941F02DC01CB0189AB9AABABABC2
:101BB000BCAB69A97AA98BA99CA920E030E040E8D8
:101BC0005FE30E94790388232CF481E090E098ABD6
:101BD0008FA73FC069A97AA98BA99CA920E03FEFF4
:101BE0004FE757E40E94190318164CF56DA97EA91A
:101BF0008FA998AD20E030E040E251E40E941F023E
:101C0000DC01CB01BC01CD010E944900DC01CB010C
:101C100098AB8FA70FC088EC90E09EA78DA78DA5ED
:101C20009EA50197F1F79EA78DA78FA598A901976B
:101C300098AB8FA78FA598A9009769F714C069A9D9
:101C40007AA98BA99CA90E944900DC01CB0198AB21
:101C50008FA78FA598A99CA78BA78BA59CA501975B
:101C6000F1F79CA78BA783E064E040E00E9470122C
:101C700000C119AEFAC08BAD69AD0E9435118AAFB3
:101C800080E090E0AAE7B4E48FA398A7A9A7BAA739
:101C90006FA178A589A59AA520E030E04AEF54E429
:101CA0000E941F02DC01CB018BA39CA3ADA3BEA3AA
:101CB0006BA17CA18DA19EA120E030E040E85FE314
:101CC0000E94790388232CF481E090E09AA389A3F1
:101CD0003FC06BA17CA18DA19EA120E03FEF4FE70B
:101CE00057E40E94190318164CF56FA178A589A531
:101CF0009AA520E030E040E251E40E941F02DC019E
:101D0000CB01BC01CD010E944900DC01CB019AA3AB
:101D100089A30FC088EC90E098A38F8F8F8D98A136
:101D20000197F1F798A38F8F89A19AA101979AA3A0
:101D300089A389A19AA1009769F714C06BA17CA11E
:101D40008DA19EA10E944900DC01CB019AA389A329
:101D500089A19AA19E8F8D8F8D8D9E8D0197F1F710
:101D60009E8F8D8F8AAD882309F47CC083E064E068
:101D700041E00E94701280E090E0AAE7B4E4898F0D
:101D80009A8FAB8FBC8F698D7A8D8B8D9C8D20E067
:101D900030E04AEF54E40E941F02DC01CB018D8B3E
:101DA0009E8BAF8BB88F6D897E898F89988D20E04F
:101DB00030E040E85FE30E94790388232CF481E05F
:101DC00090E09C8B8B8B3FC06D897E898F89988D2D
:101DD00020E03FEF4FE757E40E94190318164CF537
:101DE000698D7A8D8B8D9C8D20E030E040E251E44E
:101DF0000E941F02DC01CB01BC01CD010E94490001
:101E0000DC01CB019C8B8B8B0FC088EC90E09A8B14
:101E1000898B89899A890197F1F79A8B898B8B89AC
:101E20009C8901979C8B8B8B8B899C89009769F788
:101E300014C06D897E898F89988D0E944900DC01CC
:101E4000CB019C8B8B8B8B899C89988B8F878F8503
:101E500098890197F1F7988B8F8783E064E040E0E1
:101E60000E94701289AD8F5F89AF89AD863008F40A
:101E700002CF8BAD0E94A51180E090E0AAE7B4E408
:101E80008B879C87AD87BE876B857C858D859E857E
:101E900020E030E04AEF54E40E941F02DC01CB0155
:101EA0008F839887A987BA876F81788589859A8576
:101EB00020E030E040E85FE30E94790388232CF4BF
:101EC00081E090E09E838D833FC06F817885898516
:101ED0009A8520E03FEF4FE757E40E941903181658
:101EE0004CF56B857C858D859E8520E030E040E259
:101EF00051E40E941F02DC01CB01BC01CD010E9414
:101F00004900DC01CB019E838D830FC088EC90E0FB
:101F10009C838B838B819C810197F1F79C838B83BE
:101F20008D819E8101979E838D838D819E810097F7
:101F300069F714C06F81788589859A850E94490068
:101F4000DC01CB019E838D838D819E819A83898361
:101F500089819A810197F1F79A8389838BAD0E94D9
:101F6000CE11EB960FB6F894DEBF0FBECDBFCF916A
:101F7000DF910895DF93CF9300D000D00F92CDB7BB
:101F8000DEB789836A838981282F30E03D832C83E3
:101F90008C819D818130910591F12C813D81223090
:101FA00031052CF48C819D81009761F055C02C8106
:101FB0003D812230310591F18C819D8183309105E5
:101FC000E1F14AC0A3E5B0E0E3E5F0E08081877F7E
:101FD0008C93A3E5B0E0E3E5F0E080818F7B8C9308
:101FE000A3E5B0E0E3E5F0E080818F7E8C93A3E58C
:101FF000B0E0E3E5F0E080818F7D8C9330C0A3E515
:10200000B0E0E3E5F0E08081877F8C93A3E5B0E06A
:10201000E3E5F0E0808180648C9321C0A3E5B0E02B
:10202000E3E5F0E0808180648C93A3E5B0E0E3E534
:10203000F0E080818F7B8C9312C0A3E5B0E0E3E5F4
:10204000F0E0808180648C93A3E5B0E0E3E5F0E00C
:10205000808180648C9303C091E09B8316C08A8149
:10206000863088F4A3E5B0E0E3E5F0E08081887F86
:102070008C93A3E5B0E0E3E5F0E090818A81892BC1
:102080008C931B8202C021E02B838B810F900F90D9
:102090000F900F900F90CF91DF910895DF93CF9322
:1020A00000D0CDB7DEB7898389818330A8F4A3E55A
:1020B000B0E0E3E5F0E080818F7C8C9389818295AC
:1020C000807F8983A3E5B0E0E3E5F0E0908189813A
:1020D000892B8C931A8202C081E08A838A810F90B7
:1020E0000F90CF91DF910895DF93CF930F92CDB7EB
:1020F000DEB78983ECE5F0E0898180830F90CF9192
:10210000DF910895DF93CF930F92CDB7DEB7898328
:10211000E2E5F0E0898180830F90CF91DF9108950F
:10212000DF93CF9300D0CDB7DEB79A838983A9E53B
:10213000B0E0E9E5F0E0808182608C9389819A814A
:1021400090936900809368000F900F90CF91DF917A
:1021500008951F920F920FB60F9211242F933F9361
:102160004F935F936F937F938F939F93AF93BF939F
:10217000EF93FF93DF93CF93CDB7DEB7E091680085
:10218000F09169000995CF91DF91FF91EF91BF9197
:10219000AF919F918F917F916F915F914F913F91FF
:1021A0002F910F900FBE0F901F901895DF93CF9334
:1021B00000D00F92CDB7DEB79A838983E2E5F0E0D5
:1021C000108210C0E8E5F0E08081882F90E08270F6
:1021D00090700097B9F3A8E5B0E0E8E5F0E0808101
:1021E00082608C931B8289819A81009711F081E033
:1021F0008B8389819A8101979A8389838B81882334
:1022000009F70F900F900F90CF91DF910895DF9312
:10221000CF93CDB7DEB7AFE5B0E0EFE5F0E080817A
:1022200080688C93CF91DF910895DF93CF93CDB7E2
:10223000DEB7AFE5B0E0EFE5F0E080818F778C931B
:10224000CF91DF910895DF93CF9300D0CDB7DEB764
:102250009A83898389819A8190936C0080936B0023
:102260000F900F90CF91DF910895DF93CF9300D01F
:1022700000D00F92CDB7DEB789836A838A81882325
:1022800009F458C08A81853008F054C08981282F0C
:1022900030E03D832C838C819D818630910559F0FF
:1022A0002C813D8127303105B1F08C819D818530B5
:1022B000910529F13AC0A5E5B0E0E5E5F0E08081BF
:1022C0008C7F8C93A5E5B0E0E5E5F0E090818A8114
:1022D000892B8C932DC08A81880F880F8A83A5E56E
:1022E000B0E0E5E5F0E08081837F8C93A5E5B0E088
:1022F000E5E5F0E090818A81892B8C9319C08A8171
:102300008295880F880F807C8A83A5E5B0E0E5E59B
:10231000F0E080818F7B8C93A4E5B0E0E4E5F0E011
:1023200090818A81892B8C9303C091E09B8304C0A8
:102330001B8202C021E02B838B810F900F900F90A6
:102340000F900F90CF91DF910895DF93CF9300D03E
:10235000CDB7DEB7898389818530C0F08981883027
:10236000A8F4ABE5B0E0EBE5F0E08081482F89818F
:10237000282F30E081E090E0022E02C0880F991FE4
:102380000A94E2F7842B8C931A8202C081E08A833C
:102390008A810F900F90CF91DF910895DF93CF93B3
:1023A00000D0CDB7DEB7898389818530C8F08981B7
:1023B0008830B0F4ABE5B0E0EBE5F0E08081482F89
:1023C0008981282F30E081E090E0022E02C0880F42
:1023D000991F0A94E2F7809584238C931A8202C095
:1023E00081E08A838A810F900F90CF91DF910895C9
:1023F0001F920F920FB60F9211242F933F934F937A
:102400005F936F937F938F939F93AF93BF93EF935C
:10241000FF93DF93CF93CDB7DEB7E0916B00F091E0
:102420006C000995CF91DF91FF91EF91BF91AF9132
:102430009F918F917F916F915F914F913F912F91DC
:102440000F900FBE0F901F901895DF93CF9300D081
:1024500000D00F92CDB7DEB789836A83898184303B
:1024600018F021E02D8333C08981282F30E03C8390
:102470002B838B819C8181309105D1F02B813C8114
:10248000223031052CF48B819C81009761F01EC0B5
:102490002B813C812230310581F08B819C818330FE
:1024A000910581F013C0EBE3F0E08A8180830EC0D8
:1024B000E8E3F0E08A81808309C0E5E3F0E08A8107
:1024C000808304C0E2E3F0E08A8180831D828D81F5
:1024D0000F900F900F900F900F90CF91DF91089574
:1024E000DF93CF93CDB7DEB72E970FB6F894DEBF4C
:1024F0000FBECDBF89836A834B838981843018F0F6
:1025000021E02E870EC18A81883018F032E03E87A4
:1025100008C18B81823018F083E08E8702C18981E7
:10252000282F30E03D872C878C859D858130910553
:1025300009F44FC02C853D85223031052CF48C8563
:102540009D85009771F0ECC02C853D8522303105CA
:1025500009F477C08C859D858330910509F4A9C065
:10256000DFC08B81282F30E03B872A878A859B85B7
:10257000009731F02A853B8521303105B1F0D0C07C
:10258000ABE3B0E0EBE3F0E08081482F8A81282FB5
:1025900030E081E090E0022E02C0880F991F0A947B
:1025A000E2F7809584238C93BBC0ABE3B0E0EBE310
:1025B000F0E08081482F8A81282F30E081E090E090
:1025C000022E02C0880F991F0A94E2F7842B8C9385
:1025D000A7C08B81282F30E0398728878885998587
:1025E000009731F02885398521303105B1F098C048
:1025F000A8E3B0E0E8E3F0E08081482F8A81282F4B
:1026000030E081E090E0022E02C0880F991F0A940A
:10261000E2F7809584238C9383C0A8E3B0E0E8E3DD
:10262000F0E08081482F8A81282F30E081E090E01F
:10263000022E02C0880F991F0A94E2F7842B8C9314
:102640006FC08B81282F30E03F832E838E819F8146
:10265000009731F02E813F8121303105B1F060C00B
:10266000A5E3B0E0E5E3F0E08081482F8A81282FE0
:1026700030E081E090E0022E02C0880F991F0A949A
:10268000E2F7809584238C934BC0A5E3B0E0E5E3AB
:10269000F0E08081482F8A81282F30E081E090E0AF
:1026A000022E02C0880F991F0A94E2F7842B8C93A4
:1026B00037C08B81282F30E03D832C838C819D8116
:1026C000009731F02C813D8121303105B1F028C0D7
:1026D000A2E3B0E0E2E3F0E08081482F8A81282F76
:1026E00030E081E090E0022E02C0880F991F0A942A
:1026F000E2F7809584238C9313C0A2E3B0E0E2E379
:10270000F0E08081482F8A81282F30E081E090E03E
:10271000022E02C0880F991F0A94E2F7842B8C9333
:102720001E868E852E960FB6F894DEBF0FBECDBFE7
:10273000CF91DF910895DF93CF9300D000D00F9217
:10274000CDB7DEB789836A838981843018F021E0B0
:102750002D8333C08981282F30E03C832B838B81EC
:102760009C8181309105D1F02B813C812230310553
:102770002CF48B819C81009761F01EC02B813C81E1
:102780002230310581F08B819C818330910581F06D
:1027900013C0EAE3F0E08A8180830EC0E7E3F0E053
:1027A0008A81808309C0E4E3F0E08A81808304C0E9
:1027B000E1E3F0E08A8180831D828D810F900F908C
:1027C0000F900F900F90CF91DF910895DF93CF93EB
:1027D000CDB7DEB72E970FB6F894DEBF0FBECDBFD4
:1027E00089836A834B838981843018F021E02E87A6
:1027F0000EC18A81883018F032E03E8708C18B8193
:10280000823018F083E08E8702C18981282F30E062
:102810003D872C878C859D858130910509F44FC0BB
:102820002C853D85223031052CF48C859D850097C3
:1028300071F0ECC02C853D852230310509F477C05C
:102840008C859D858330910509F4A9C0DFC08B81FB
:10285000282F30E03B872A878A859B85009731F0B7
:102860002A853B8521303105B1F0D0C0AAE3B0E024
:10287000EAE3F0E08081482F8A81282F30E081E070
:1028800090E0022E02C0880F991F0A94E2F780950B
:1028900084238C93BBC0AAE3B0E0EAE3F0E080813C
:1028A000482F8A81282F30E081E090E0022E02C07C
:1028B000880F991F0A94E2F7842B8C93A7C08B8111
:1028C000282F30E03987288788859985009731F04F
:1028D0002885398521303105B1F098C0A7E3B0E0F3
:1028E000E7E3F0E08081482F8A81282F30E081E003
:1028F00090E0022E02C0880F991F0A94E2F780959B
:1029000084238C9383C0A7E3B0E0E7E3F0E0808109
:10291000482F8A81282F30E081E090E0022E02C00B
:10292000880F991F0A94E2F7842B8C936FC08B81D8
:10293000282F30E03F832E838E819F81009731F0D6
:102940002E813F8121303105B1F060C0A4E3B0E0B9
:10295000E4E3F0E08081482F8A81282F30E081E095
:1029600090E0022E02C0880F991F0A94E2F780952A
:1029700084238C934BC0A4E3B0E0E4E3F0E08081D7
:10298000482F8A81282F30E081E090E0022E02C09B
:10299000880F991F0A94E2F7842B8C9337C08B81A0
:1029A000282F30E03D832C838C819D81009731F06E
:1029B0002C813D8121303105B1F028C0A1E3B0E088
:1029C000E1E3F0E08081482F8A81282F30E081E028
:1029D00090E0022E02C0880F991F0A94E2F78095BA
:1029E00084238C9313C0A1E3B0E0E1E3F0E08081A5
:1029F000482F8A81282F30E081E090E0022E02C02B
:102A0000880F991F0A94E2F7842B8C931E868E857B
:102A10002E960FB6F894DEBF0FBECDBFCF91DF91DB
:102A20000895DF93CF93CDB7DEB727970FB6F8940D
:102A3000DEBF0FBECDBF89836A835C834B838981F0
:102A4000843018F021E02F8377C08A81883018F015
:102A500032E03F8371C08981482F50E05E834D830F
:102A60008D819E818130910559F12D813E812230E9
:102A7000310534F44D815E814115510569F05BC02B
:102A80008D819E818230910579F12D813E812330A7
:102A9000310509F43DC04FC0E9E3F0E08081282F03
:102AA00030E08A81882F90E0A90102C055954795B2
:102AB0008A95E2F7CA018170EB81FC8180833BC07B
:102AC000E6E3F0E08081282F30E08A81882F90E0D3
:102AD000A90102C0559547958A95E2F7CA01817010
:102AE000EB81FC81808327C0E3E3F0E08081282F25
:102AF00030E08A81882F90E0A90102C05595479562
:102B00008A95E2F7CA018170EB81FC81808313C052
:102B1000E0E3F0E08081282F30E08A81882F90E088
:102B2000A90102C0559547958A95E2F7CA018170BF
:102B3000EB81FC8180831F828F8127960FB6F894EA
:102B4000DEBF0FBECDBFCF91DF910895DF93CF934E
:102B500000D000D00F92CDB7DEB789836A83898118
:102B6000843018F021E02D8375C08A81883018F0F8
:102B700032E03D836FC08981282F30E03C832B8376
:102B80008B819C818130910549F12B813C812230E0
:102B900031052CF48B819C81009761F05AC02B8108
:102BA0003C812230310571F18B819C81833091050C
:102BB000E9F14FC0ABE3B0E0EBE3F0E08081482FF8
:102BC0008A81282F30E081E090E0022E02C0880F39
:102BD000991F0A94E2F784278C933BC0A8E3B0E0E6
:102BE000E8E3F0E08081482F8A81282F30E081E0FF
:102BF00090E0022E02C0880F991F0A94E2F7842702
:102C00008C9327C0A5E3B0E0E5E3F0E08081482F96
:102C10008A81282F30E081E090E0022E02C0880FE8
:102C2000991F0A94E2F784278C9313C0A2E3B0E0C3
:102C3000E2E3F0E08081482F8A81282F30E081E0B4
:102C400090E0022E02C0880F991F0A94E2F78427B1
:102C50008C931D828D810F900F900F900F900F908D
:102C6000CF91DF910895DF93CF9300D0CDB7DEB73A
:102C70009A83898389819A810E9490100F900F9086
:102C8000CF91DF910895DF93CF9300D0CDB7DEB71A
:102C900089836A838A81882329F480E069810E947C
:102CA000BA0F07C082E069810E94BA0F8A810E9430
:102CB00074100F900F90CF91DF910895DF93CF9311
:102CC00000D0CDB7DEB79A83898389819A810E942B
:102CD000D6100F900F90CF91DF910895DF93CF938F
:102CE00000D0CDB7DEB789836A8389816A8140E0ED
:102CF0000E94E6130F900F90CF91DF910895DF931C
:102D0000CF9300D000D0CDB7DEB789836A835C83D0
:102D10004B832B813C8189816A81A9010E94111515
:102D20000F900F900F900F90CF91DF910895DF9348
:102D3000CF9300D000D0CDB7DEB78A836B838A8172
:102D40006B8141E00E94E61389838981882311F415
:102D50001C8202C081E08C838C810F900F900F90B9
:102D60000F90CF91DF910895DF93CF9300D000D0E3
:102D7000CDB7DEB78A836B838A816B8141E00E9485
:102D8000701289838981882311F41C8202C081E03A
:102D90008C838C810F900F900F900F90CF91DF91CB
:102DA0000895DF93CF9300D000D0CDB7DEB78A83EC
:102DB0006B838A816B8140E00E94701289838981D4
:102DC000882311F41C8202C081E08C838C810F90D7
:102DD0000F900F900F90CF91DF9108950F931F9355
:102DE000DF93CF93CDB7DEB72A970FB6F894DEBF47
:102DF0000FBECDBF8A836B835D834C833F832E835D
:102E0000198708878A816B810E94A6158983898129
:102E1000882301F50EC08A816B810E94A6158C81E2
:102E20009D810E94D6108E819F818E5591409F83F7
:102E30008E838E819F81181619062CF4E885F985FA
:102E40008081813041F78A816B8140E00E9470125D
:102E50001A8602C081E08A878A852A960FB6F8947E
:102E6000DEBF0FBECDBFCF91DF911F910F910895AF
:102E7000EF92FF920F931F93DF93CF93CDB7DEB7FF
:102E80002B970FB6F894DEBF0FBECDBF8B836C833C
:102E90004D832E8318870F83FA86E9868B816C8198
:102EA0000E94A6158A838D816E810E94A615898352
:102EB0008A81882349F58981882331F514C08B8163
:102EC0006C810E94A6158A838D816E810E94A61551
:102ED00089838F8198850E94D61089859A858E5521
:102EE00091409A87898789859A85181619063CF337
:102EF0008B816C8140E00E9470128D816E8140E078
:102F00000E9470121B8602C081E08B878B852B96F6
:102F10000FB6F894DEBF0FBECDBFCF91DF911F91EA
:102F20000F91FF90EF900895DF93CF9300D0CDB72E
:102F3000DEB7898383E062E040E00E94E61383E02D
:102F400062E041E00E9470128981813029F486E0BC
:102F50000E94A5111A820AC08981823029F486E074
:102F60000E94CE111A8202C081E08A838A810F906A
:102F70000F90CF91DF910895DF93CF9300D0CDB71D
:102F8000DEB79A83898386E062E00E9435110E9451
:102F9000071189819A810E9423110F900F90CF9180
:102FA000DF910895DF93CF93CDB7DEB780E062E085
:102FB0000E94971680E060E00E94971680E061E032
:102FC0000E94971681E062E00E94971681E060E01F
:102FD0000E94971681E061E00E94971684E06AEFF4
:102FE0000E944316CF91DF910895EF92FF920F93C5
:102FF0001F93DF93CF930F92CDB7DEB781E00E948E
:10300000941785EA98E10E94BC174DC0198280E0B0
:1030100060E00E94B4168AE690E068E873E10E94DE
:10302000B21880E060E00E94D11681E062E00E9468
:10303000D11680916A008130D9F181E08983EAE676
:10304000F0E080E061E04CE250E028E833E18F01FD
:103050000E94EE1680916A00813051F180E062E0BA
:103060000E94B41682E089838AE690E068E873E102
:103070000E94B21880E062E00E94D11680916A003E
:103080008130B1F081E08983EAE6F0E080E061E040
:103090004CE250E028E833E18F010E94EE16809167
:1030A0006A00813029F080916A00882309F4AECF4C
:1030B00089818230D1F081E062E00E94B41681E71C
:1030C00092E00E945E1681E062E00E94D11681E0EB
:1030D00061E040E021E00CE210E00F2EF8E8EF2E76
:1030E000F3E1FF2EF02D0E94381781E060E00E948E
:1030F000B41680E062E00E94B41681E792E00E947C
:103100005E1680E062E00E94D11681E061E040E05E
:1031100021E00CE210E00F2EF8E8EF2EF3E1FF2E95
:10312000F02D0E94381781E060E00E94D11681E006
:1031300062E00E94B41610926A000F90CF91DF9166
:103140001F910F91FF90EF900895DF93CF93CDB72C
:10315000DEB781E080936A0082E00E949417CF91ED
:10316000DF910895DF93CF9300D000D0CDB7DEB7C5
:103170009A8389837C836B830AC08EE390E00E94EC
:103180005E168B819C81845F91409C838B83E98157
:10319000FA818081813021F08B819C81009769F7D1
:1031A0000F900F900F900F90CF91DF910895DF93C4
:1031B000CF93CDB7DEB70E94D2170E94F517FDCF8F
:1031C0002F923F924F925F926F927F928F929F9237
:1031D000AF92BF92CF92DF92EF92FF920F931F9325
:1031E000CF93DF93CDB7DEB7CA1BDB0B0FB6F894D6
:1031F000DEBF0FBECDBF09942A88398848885F8416
:103200006E847D848C849B84AA84B984C884DF8086
:10321000EE80FD800C811B81AA81B981CE0FD11D6A
:103220000FB6F894DEBF0FBECDBFED010895F89440
:02323000FFCFCE
:08323200000000000000000094
:00000001FF
